{
  "abi": [
    {
      "anonymous": false,
      "inputs": [
        {
          "indexed": true,
          "internalType": "address",
          "name": "_winner",
          "type": "address"
        },
        {
          "indexed": false,
          "internalType": "uint256",
          "name": "_ticketID",
          "type": "uint256"
        },
        {
          "indexed": false,
          "internalType": "uint256",
          "name": "_amount",
          "type": "uint256"
        }
      ],
      "name": "LotteryAmountPaid",
      "type": "event"
    },
    {
      "anonymous": false,
      "inputs": [
        {
          "indexed": true,
          "internalType": "address",
          "name": "_purchaser",
          "type": "address"
        },
        {
          "indexed": false,
          "internalType": "uint256",
          "name": "_ticketID",
          "type": "uint256"
        }
      ],
      "name": "LotteryTicketPurchased",
      "type": "event"
    },
    {
      "inputs": [
        {
          "internalType": "uint16",
          "name": "_ticket",
          "type": "uint16"
        }
      ],
      "name": "buyTicket",
      "outputs": [
        {
          "internalType": "bool",
          "name": "",
          "type": "bool"
        }
      ],
      "stateMutability": "payable",
      "type": "function"
    },
    {
      "inputs": [
        {
          "internalType": "uint16",
          "name": "_ticket",
          "type": "uint16"
        }
      ],
      "name": "buyTicket2",
      "outputs": [
        {
          "internalType": "bool",
          "name": "",
          "type": "bool"
        }
      ],
      "stateMutability": "nonpayable",
      "type": "function"
    },
    {
      "inputs": [],
      "name": "getTicketsPurchased",
      "outputs": [
        {
          "internalType": "address payable[26]",
          "name": "",
          "type": "address[26]"
        }
      ],
      "stateMutability": "view",
      "type": "function"
    },
    {
      "inputs": [],
      "name": "increaseTicket",
      "outputs": [
        {
          "internalType": "bool",
          "name": "",
          "type": "bool"
        }
      ],
      "stateMutability": "nonpayable",
      "type": "function"
    },
    {
      "inputs": [],
      "name": "lotteryPicker",
      "outputs": [
        {
          "internalType": "uint256",
          "name": "",
          "type": "uint256"
        }
      ],
      "stateMutability": "view",
      "type": "function"
    },
    {
      "inputs": [],
      "name": "sendReward",
      "outputs": [
        {
          "internalType": "address payable",
          "name": "",
          "type": "address"
        }
      ],
      "stateMutability": "nonpayable",
      "type": "function"
    },
    {
      "inputs": [
        {
          "internalType": "uint256",
          "name": "",
          "type": "uint256"
        }
      ],
      "name": "ticketMapping",
      "outputs": [
        {
          "internalType": "address payable",
          "name": "",
          "type": "address"
        }
      ],
      "stateMutability": "view",
      "type": "function"
    },
    {
      "inputs": [],
      "name": "ticketMax",
      "outputs": [
        {
          "internalType": "uint64",
          "name": "",
          "type": "uint64"
        }
      ],
      "stateMutability": "view",
      "type": "function"
    },
    {
      "inputs": [],
      "name": "ticketPrice",
      "outputs": [
        {
          "internalType": "uint64",
          "name": "",
          "type": "uint64"
        }
      ],
      "stateMutability": "view",
      "type": "function"
    },
    {
      "inputs": [],
      "name": "ticketsBought",
      "outputs": [
        {
          "internalType": "uint256",
          "name": "",
          "type": "uint256"
        }
      ],
      "stateMutability": "view",
      "type": "function"
    }
  ],
  "bytecode": {
    "object": "0x6080604052600080546001600160801b03191668190000000000000005178155601b5534801561002e57600080fd5b5061096d8061003e6000396000f3fe6080604052600436106100915760003560e01c806368e451221161005957806368e451221461015b5780637cdcc30e1461017b5780637f702e801461019d578063af4a047a146101bd578063e3075e4e146101d357600080fd5b806304bccf7a146100965780631149a81a146100be5780631209b1f6146100eb57806331bddc21146101235780634eefee3414610148575b600080fd5b3480156100a257600080fd5b506100ab6101fa565b6040519081526020015b60405180910390f35b3480156100ca57600080fd5b506100d36102c5565b6040516001600160a01b0390911681526020016100b5565b3480156100f757600080fd5b5060005461010b906001600160401b031681565b6040516001600160401b0390911681526020016100b5565b34801561012f57600080fd5b506101386103e3565b60405190151581526020016100b5565b61013861015636600461079e565b610404565b34801561016757600080fd5b5061013861017636600461079e565b610662565b34801561018757600080fd5b50610190610684565b6040516100b591906107c9565b3480156101a957600080fd5b506100d36101b8366004610804565b6106ca565b3480156101c957600080fd5b506100ab601b5481565b3480156101df57600080fd5b5060005461010b90600160401b90046001600160401b031681565b60008054601b54600160401b9091046001600160401b0316111561021d57600080fd5b6000424360405160200161023b929190918252602082015260400190565b6040516020818303038152906040529050600060028260405161025e919061081d565b602060405180830381855afa15801561027b573d6000803e3d6000fd5b5050506040513d601f19601f8201168201806040525081019061029e919061084c565b6000549091506102be90600160401b90046001600160401b031682610865565b9250505090565b60008054601b54600160401b9091046001600160401b031611156102e857600080fd5b60006102f26101fa565b90506000600182601a811061030957610309610887565b0154600080546001600160a01b0390921692509061033a906001600160401b0380821691600160401b9004166108b3565b6001600160401b031690506001600160a01b03821661035857600080fd5b6103606106ea565b506040516001600160a01b0383169082156108fc029083906000818181858888f19350505050158015610397573d6000803e3d6000fd5b5060408051848152602081018390526001600160a01b038416917f90fae5ca492960e1bb35453bb2762d7fe405c674e6e13ac7a0bc7e6290a088f8910160405180910390a25091505090565b60006001601b60008282546103f891906108de565b90915550600192915050565b600080546001600160401b0316341461045b5760405162461bcd60e51b8152602060048201526014602482015273496e76616c6964207469636b657420707269636560601b60448201526064015b60405180910390fd5b60008261ffff16118015610498575060005461048890600160401b90046001600160401b031660016108f7565b6001600160401b03168261ffff16105b6104dc5760405162461bcd60e51b815260206004820152601560248201527424b73b30b634b2103a34b1b5b2ba10373ab6b132b960591b6044820152606401610452565b6000600161ffff8416601a81106104f5576104f5610887565b01546001600160a01b0316146105435760405162461bcd60e51b8152602060048201526013602482015272151a58dad95d08185b1c9958591e481cdbdb19606a1b6044820152606401610452565b600054601b54600160401b9091046001600160401b0316116105a75760405162461bcd60e51b815260206004820152601860248201527f416c6c207469636b65747320616c726561647920736f6c6400000000000000006044820152606401610452565b60003390506001601b60008282546105bf91906108de565b90915550819050600161ffff8516601a81106105dd576105dd610887565b0180546001600160a01b0319166001600160a01b0392831617905560405161ffff85168152908216907f5436f9c7563d4b5be022d399b41f15519419cafca0f81c49d0cfbe78b925cbff9060200160405180910390a2600054601b54600160401b9091046001600160401b031611610659576106576102c5565b505b50600192915050565b60006001601b600082825461067791906108de565b9091555060019392505050565b61068c61077f565b6040805161034081019182905290600190601a9082845b81546001600160a01b031681526001909101906020018083116106a3575050505050905090565b600181601a81106106da57600080fd5b01546001600160a01b0316905081565b60008054601b54600160401b9091046001600160401b0316111561070d57600080fd5b6000601b8190555b60005461073390600160401b90046001600160401b031660016108f7565b6001600160401b031681101561077757600181601a811061075657610756610887565b0180546001600160a01b03191690558061076f8161091e565b915050610715565b506001905090565b604051806103400160405280601a906020820280368337509192915050565b6000602082840312156107b057600080fd5b813561ffff811681146107c257600080fd5b9392505050565b6103408101818360005b601a8110156107fb5781516001600160a01b03168352602092830192909101906001016107d3565b50505092915050565b60006020828403121561081657600080fd5b5035919050565b6000825160005b8181101561083e5760208186018101518583015201610824565b506000920191825250919050565b60006020828403121561085e57600080fd5b5051919050565b60008261088257634e487b7160e01b600052601260045260246000fd5b500690565b634e487b7160e01b600052603260045260246000fd5b634e487b7160e01b600052601160045260246000fd5b6001600160401b038181168382160280821691908281146108d6576108d661089d565b505092915050565b808201808211156108f1576108f161089d565b92915050565b6001600160401b038181168382160190808211156109175761091761089d565b5092915050565b6000600182016109305761093061089d565b506001019056fea2646970667358221220b7dec4e5f2a3c5bfb2ae33887770a86529e144558e3fbf71e22e2cef8f25bb4b64736f6c63430008130033",
    "linkReferences": {}
  },
  "methodIdentifiers": {
    "buyTicket(uint16)": "4eefee34",
    "buyTicket2(uint16)": "68e45122",
    "getTicketsPurchased()": "7cdcc30e",
    "increaseTicket()": "31bddc21",
    "lotteryPicker()": "04bccf7a",
    "sendReward()": "1149a81a",
    "ticketMapping(uint256)": "7f702e80",
    "ticketMax()": "e3075e4e",
    "ticketPrice()": "1209b1f6",
    "ticketsBought()": "af4a047a"
  },
  "id": 13
}